:020000022000DC
:1060000000000120B5620200DD620200DF620200D2
:10601000E1620200E3620200E562020000000000AB
:10602000000000000000000000000000E762020025
:10603000E962020000000000EB620200ED62020073
:1060400069AD02001933030071B50200791C030029
:10605000D11C0300EF62020079AF02009D20030013
:10606000EF620200EF620200EF620200EF620200E4
:10607000EF620200EF620200EF620200EF620200D4
:10608000EF620200FD710200EF620200EF620200A7
:106090009D720200EF6202004519030035340300CF
:1060A000EF620200EF620200EF620200EF620200A4
:1060B000EF620200EF62020000000000000000003A
:1060C000EF620200EF620200EF620200EF62020084
:1060D000EF620200EF620200EF62020000000000C7
:1060E00000000000000000000000000000000000B0
:1060F00000000000000000000000000000000000A0
:10610000000000000000000000000000000000008F
:10611000000000000000000000000000000000007F
:10612000000000000000000000000000000000006F
:10613000000000000000000000000000000000005F
:10614000000000000000000000000000000000004F
:10615000000000000000000000000000000000003F
:10616000000000000000000000000000000000002F
:10617000000000000000000000000000000000001F
:10618000000000000000000000000000000000000F
:1061900000000000000000000000000000000000FF
:1061A00000000000000000000000000000000000EF
:1061B00000000000000000000000000000000000DF
:1061C00000000000000000000000000000000000CF
:1061D00000000000000000000000000000000000BF
:1061E00000000000000000000000000000000000AF
:1061F000000000000000000000000000000000009F
:1062000010B5054C237833B9044B13B10448AFF3F0
:1062100000800123237010BD083000200000000022
:10622000BC7A030008B5034B1BB103490348AFF325
:10623000008008BD000000000C300020BC7A030084
:10624000154B002B08BF134B9D46A3F5803A002148
:106250008B460F461348144A121A0FF075FB0F4B6A
:10626000002B00D098470E4B002B00D09847002001
:10627000002104000D000D48002802D00C48AFF3A7
:1062800000800FF003FB2000290006F08BF80FF0D0
:10629000E9FA00BF00000800000001200000000033
:1062A0000000000008300020305D002000000000E9
:1062B000000000000649074A074B9B1A03DD043B18
:1062C000C858D050FBDC04F0A9FAFFF7B9FF000072
:1062D000607C0300382D002008300020FEE7FEE738
:1062E000FEE7FEE7FEE7FEE7FEE7FEE7FEE7FEE786
:1062F000704700BF00B583B0044B0093044A4023AD
:1063000000F036F803B05DF804FB00BF156302002F
:106310002830002002B32DE9F843114B114E884676
:10632000144643F0010903270025224608EB050126
:10633000002006F0E3FA03461D444FF47A40E41AC5
:1063400023B9337833B1C847013F06D001233370F6
:10635000002CEAD1BDE8F88370473770BDE8F883B8
:106360000062030024300020704700BF06F07ABBB3
:10637000F0B595B0002415460F4608461E4604F0B9
:10638000D1F8384623460895082205A91A9D099692
:106390000D950A948DF82C400C9404F017F99DF893
:1063A00014308DF81140DDE9061003F00302012AD4
:1063B000CDE9020127D0022A04D0384604F0B6F80D
:1063C00015B0F0BDBDF81650C3F3C2038DF8103000
:1063D000AD090826082D2C4628BF0824334622463E
:1063E0000EA9384604F0F2F82D1B214608AB02AA8C
:1063F0000EA8264400F02AFD002DEBD1384604F00B
:1064000095F815B0F0BDBDF81460059DC6F3831670
:10641000C3F3C204B2000EA9384608238DF8104019
:10642000C5F3952504F0D2F808AB324628460EA9EC
:10643000009302AB00F064FC384604F077F815B026
:10644000F0BD00BF10B5054CFFF790FF20460421BA
:1064500000F014FC0123637210BD00BF382D002032
:10646000F0B5314D85B005F5836002F041FF05F2CE
:10647000144002F03DFFD5E9012702EA0704E31CBE
:1064800005EB830319788E0701F004000ED0C8B124
:1064900001F00301012935D0022902F10200EED1F9
:1064A0005A8800EB921202EA0704E8E7561C00281B
:1064B000EED159881A8806EB911606EB921202EA81
:1064C0000704DCE705EB8404531CE16801913B40C1
:1064D00005EB830301F003010129DE6802F10204E8
:1064E0001AD0022916D1BDF806309B090333360CA9
:1064F00004EB93040D4802F007FF00B16C603046D6
:1065000005B0F0BD1B880232C3F383131A4402EABC
:106510000704B4E70646EDE7BDF80430C3F3831380
:10652000360C1C44E6E700BF383100204C35002013
:1065300008B50E4B0E480022FF21C3F818249960BD
:10654000C3E90022C3F8142483F8202403F0A6FF33
:1065500058B9084A084BD21AD20806D00749034650
:1065600021F8233001339A42FAD108BD3831002096
:10657000F87B0300F87B0300487B0300982F002082
:1065800021B9134A02EBC0000068704730B41149CA
:106590000F4C091BC90816D00F4B5A88824218BFEE
:1065A000002205D111E0DD88854203F1040305D006
:1065B00001329142F7D1002030BC704704EBC20099
:1065C000006830BC70470846F6E72046F8E700BF91
:1065D000487B0300F87B0300982F0020094B01390A
:1065E00003EBC00003290BD8DFE801F00208060422
:1065F0000220704740797047007970470420704747
:1066000000207047487B03002DE9F04383B002ABC4
:10661000002203F8012DDFF8DC9007461846884673
:10662000D9F8084001F0FAF8D9E90132D9F8006048
:10663000134401339B1B012B58D809F21C4501213F
:10664000284602F031FEFFF70BFF0146284602F014
:106650002BFED9E90132D9F80010134401335B1A3B
:10666000012BECD90A400332052302319DF80700C3
:1066700049F82230C9F8001001F0F6F800211C4852
:1066800002F0D8FD80F31000731C234009EB830354
:1066900000043440033440EA1740D86019F824302D
:1066A00067F3C50309F8243039F824306FF38913F0
:1066B00029F8243059F8242068F39F221346012139
:1066C00061F301036FF3820349F8242009F82430B1
:1066D00099F820341BB906E000F00EF818B1D9E99A
:1066E00000329A42F8D103B0BDE8F0833146B9E7F1
:1066F00054350020383100202DE9F0478F4D00231C
:1067000084B0C5F81834BFF34F8FD5E901462B6824
:106710000CE037B301F0030101294FD0022903D166
:106720005288023404EB9214A34215D904EA0600FD
:10673000C21C05EB8202117811F0030F01F004076F
:10674000E7D1002FE6D151881288013404EB91146F
:1067500004EB9214A342E9D800206B6004B0BDE8BA
:10676000F08705EB8000631CC2680192334005EBA3
:10677000830302F00302DB680293022A04F1020899
:1067800000F08380012A1FD0D5F8104434B123686B
:1067900020469B6898476468002CF8D1684B69498B
:1067A0001888000440F00200FFF72EFFD5E9003002
:1067B000C01A18BF012004B0BDE8F0871288023467
:1067C000C2F383121444AFE7BDF804205E48C2F35D
:1067D0008313062B28BF062363F389120233990023
:1067E000ADF8042003F05CFE81460028CCD003F015
:1067F00099FE3B46082201A9484603F0B9FEBDF8C0
:10680000043013F4707F00F097806FF0010AAAEB58
:10681000040A082406EA080103312346042205EB92
:106820008101484603F0A4FEBDF8043008F10107D9
:106830000AEB0702C3F383139342B84604F104043E
:10684000E8D8D5F81834002B6BD1D5F8104454B1E2
:10685000637A20464946002B5FD023681B6898471F
:106860006468002CF4D1484603F060FE04A80023BD
:1068700000F80D3D00F0D2FFD5F8183403B96F6071
:106880009DF8030000F0F0FF90E7BDF806302E48B9
:106890009C09502CA24628BF4FF0500A6AF38F1370
:1068A0000AF10801ADF8063003F0FAFD8146002830
:1068B0003FF46AAF03F036FE3B4626EA080701378D
:1068C000082201A94846BF0003F052FEBA4519D973
:1068D0005FFA8AF34FB306EA0801DB1B033105EBCD
:1068E0008101DEB23A460823484603F041FE3246B3
:1068F00007F108031549484603F03AFE033408EB54
:1069000094079EE706EA0801033105EB8101524630
:106910000823484603F02CFEF0E76468002C97D16A
:10692000A1E7484603F002FE40E752460823074924
:10693000484603F01DFEE1E7474682E73831002074
:10694000B42F002014620300F87B030044310020C0
:106950002DE9F04782B002AB002403F8014DDFF8C7
:10696000ECA00746184691468846DAF8084000F041
:1069700055FFDAE90132DAF80060134401339B1B5A
:10698000022B5ED80AF21C450121284602F08CFC3D
:10699000FFF766FD0146284602F086FCDAE901327F
:1069A000DAF80010134401335B1A022BECD90A40C9
:1069B0000332033145239DF807004AF82230CAF814
:1069C000001000F051FFB31C23400AEB83030021A9
:1069D0001D48C3F80C9002F02DFC80F31000731CCE
:1069E00023400AEB830300043440033440EA174099
:1069F000D8601AF8243067F3C5030AF824303AF84F
:106A00002430012161F389132AF824305AF8242014
:106A100068F39F22134661F301036FF382034AF880
:106A200024200AF824309AF820341BB906E0FFF736
:106A300063FE18B1DAE900329A42F8D102B0BDE83B
:106A4000F0873146B3E700BF5435002038310020CD
:106A50002DE9F04F83B002AD002405F8014D3B4C09
:106A60008046284693469A468946A56800F0D6FE99
:106A7000D4E90132276813440133DB1B032B63D8AD
:106A800004F21C460121304602F00EFCFFF7E8FC40
:106A90000146304602F008FCD4E901322168134473
:106AA00001335B1A032BEDD90A400332852344F8E6
:106AB000223004319DF80700216000F0D5FEBA1C99
:106AC000FB1C2A402B4004EB820204EB83030021D1
:106AD0001F48C2F80CB0C3F80CA002F0ABFB80F367
:106AE00010007B1C2B4004EB830300043D40033566
:106AF00040EA1840D86014F8253068F3C50304F85C
:106B0000253034F82530022262F3891324F8253029
:106B100054F8252069F39F221346012161F30103F4
:106B20006FF3820344F8252004F8253094F82034CC
:106B30001BB906E0FFF7E0FD18B1D4E900329A4234
:106B4000F8D103B0BDE8F08F3946ADE73831002009
:106B5000543500202DE9F04F83B002AE002406F832
:106B6000014D3E4C8046304693469A46A56889467C
:106B700000F054FED4E90132276813440133DB1BD3
:106B8000042B69D804F21C460121304602F08CFB2C
:106B9000FFF766FC0146304602F086FBD4E901327D
:106BA0002168134401335B1A042BEDD90A400332E8
:106BB000C52344F8223005319DF80700216000F01C
:106BC00053FEB81CFA1C28402A403B1D2B4004EB06
:106BD000800004EB820204EB8303C0F80CB00021B8
:106BE000C2F80CA01E480C9ADA6002F023FB80F376
:106BF00010007B1C2B4004EB830300043D40033555
:106C000040EA1840D86014F8253068F3C50304F84A
:106C1000253034F82530032262F3891324F8253017
:106C200054F8252069F39F221346012161F30103E3
:106C30006FF3820344F8252004F8253094F82034BB
:106C40001BB906E0FFF758FD18B1D4E900329A42AB
:106C5000F8D103B0BDE8F08F3946A7E738310020FE
:106C600054350020044BD3E900239A4201D0FFF7AA
:106C700043BD0020704700BF3831002030B4154DAF
:106C8000D5F81044002154B1237A8B4213D0234607
:106C900002E01A7A8A420ED05B68002BF9D10172A9
:106CA000D5F810347BB15B684360D5F81034586078
:106CB00030BC0846704701310A29E4D14FF0FF315A
:106CC000084630BC7047C5F81004436030BC084625
:106CD000704700BF3831002038B5084BD3F8104456
:106CE000012583F820543CB12368657220465B6817
:106CF00098476468002CF7D138BD00BF38310020B8
:106D00002DE9F04784B01D460C9C002394F80C80BC
:106D10002373EB8881460E461746002B40D1297A13
:106D200005290ED06B7AA88873BB404B53F821A07D
:106D30000021FFF725FC524603463D49204602F05C
:106D400067FB062F09D8DFE807F0046A4249525D65
:106D500033004946204602F05BFB2B7A052B05D019
:106D60006B7A5BB93349204602F052FB204602F0B1
:106D700043FB84F80C8004B0BDE8F0872E4A2F490D
:106D8000204602F045FBEDE7FFF728FC2C4B2B4992
:106D900053F82020204602F03BFB297AA888C4E75C
:106DA000254A00922749284A204602F031FBB6E7DF
:106DB000D6E90410D6E900230390D6E90207029130
:106DC000CDE900074946204602F022FBC5E74946C7
:106DD000D6E90023204602F01BFBBEE7B168D6E9E6
:106DE000002320460091494602F012FBB5E7D6E9A0
:106DF0000201D6E90023019100904946204602F0A5
:106E000007FBAAE7D6E90371B068D6E9002302912F
:106E1000CDE900074946204602F0FAFA9DE73268BC
:106E20004946204602F0F4FA97E700BFB06203003B
:106E3000A46203004C77030098620300A062030081
:106E4000406203008062030078620300082900D9D1
:106E500070472DE9F04F1D46904600232A7B2B7387
:106E600085B0B8F80630039207460E46002B77D15E
:106E700098F80810052911D098F80930B8F80400DE
:106E8000002B5FD13A4B53F821400021FFF778FBEC
:106E9000224603463749284602F0BAFADFF8F4B032
:106EA000DFF8F490002405E03A5D013402F0B0FA16
:106EB000082C09D0A64249462846F5D8594601343F
:106EC00002F0A6FA082CF5D12B49DFF8D090DFF8B4
:106ED000D0B0284602F09CFA002411E017F804A074
:106EE0000EF0F8FC50445946437813F0970F14BF46
:106EF00052462E222846013402F08AFA082C08D085
:106F0000A64249462846E9D8013402F081FA082C05
:106F1000F6D198F80830052B02D098F809305BB903
:106F20001649284602F074FA284602F065FA039BD7
:106F30002B7305B0BDE8F08F114A1249284602F0C4
:106F400067FAEDE7FFF74AFB0F4B0E4953F8202095
:106F5000284602F05DFA98F80810B8F8040091E7A6
:106F6000074A009209490A4A284602F051FA7FE787
:106F7000B0620300A4620300706203004C77030058
:106F800098620300A0620300406203008062030075
:106F9000786203006C62030064620300AC62030069
:106FA0007462030000B585B000230390194601AA5E
:106FB00044F20100CDE9013300F012F805B05DF8AC
:106FC00004FB00BF00B583B002900091019244F22F
:106FD000010071466A4600F003F803B000BD00BF2F
:106FE00010B572B6FFF778FEFFF73CFE0028FBD124
:106FF000104C11492088000440F00100FFF704FB09
:107000000E4B1B68DB0700D500BE20880C4900042E
:1070100040F00200FFF7F8FABFF34F8F09490A4B1F
:10702000CA6802F4E0621343CB60BFF34F8F00BF26
:10703000FDE700BFB42F00201C630300F0ED00E06B
:107040002863030000ED00E00400FA05F0B412F03C
:10705000030412D14B1CDB000A4D0B4E0B4F347056
:107060009BB213442B600A4E0A4D0B4B28803A60AA
:10707000347019802046F0BC704707242046F0BCCD
:10708000704700BF603500205C350020643500206B
:107090006C350020683500206A3500202DE9F04766
:1070A0002D4F3B888B4282B03CD3054602A84FF05F
:1070B000000800F8018D16460C4600F0AFFB274B88
:1070C000274A284819781378B0F800C09DF80700BF
:1070D000DBB2634538BF0133C9B238BF5FFA83F80A
:1070E000414523D092F800801378DFF88090DBB21E
:1070F0009C4586BF0133DBB200235FFA88F813702A
:1071000000F0B2FBD9F800300FFA88F24FEAC20A59
:1071100043F83260534405B174B90020988002B03E
:10712000BDE8F087092002B0BDE8F08700F09CFBC5
:10713000042002B0BDE8F0870B4B38881B68294655
:1071400008FB003022460EF0F4FBD9F800309A44D8
:107150000020AAF80440E2E7683500206C350020E2
:107160005C3500206A350020603500206435002041
:107170002DE9F84F1B4C1C4D22782B789A4226D0D3
:10718000DFF86CA0DFF86C90184FDFF86CB04FF0B0
:1071900000082378DAF800203888D9F80060DBB2DC
:1071A0000FFA83FE02EBCE0103FB0060898852F8E0
:1071B0003E3098472378BBF80010DBB25A1C994246
:1071C000D2B206D9227023782A789A42E1D1BDE85A
:1071D000F88F84F8008022782B789A42D9D1BDE8C4
:1071E000F88F00BF6C3500205C350020683500202A
:1071F00064350020603500206A350020F8B5204A4B
:10720000204B0024C2F84041C2F84441C2F8484132
:10721000C2F84C41C2F80041C2F804411B6833B3C4
:107220001949D2F804550A68AD1A1A6825F07F4545
:10723000AA4227460DD8197CDE69AD1A144419B14B
:107240001F74D3E9052090471EB133461A68AA423D
:10725000F1D90E490E4A0B7812789A4208D00D499E
:107260000D4A41F823404FF48013C2F80031F8BDB5
:10727000531CDBB2022B08BF00230B70EFE700BFEB
:1072800000100140903600208C3600208936002006
:10729000883600208036002000E100E02DE9F04F24
:1072A0008C4A8D4913780978DFF85082994285B06D
:1072B000D8F800A000F07B810133DBB2022B08BFBD
:1072C000002386481370864A076852F823107B18FB
:1072D00023F07F4300240360534626462046A446FD
:1072E000ABB11A688A4200F26581DC68C3F800C05D
:1072F000891A1044DA6934B13D1825F07F45C3E995
:107300000154DE611E4613460124002BE9D1002CF6
:1073100040F07C8101230093724B734FDFF8E091C2
:1073200043F00103019355464FF0000B46B3D6E9F5
:1073300001C13446F669694B6C481A68ACEB02032C
:1073400023F07F43834248D80B442360002201216D
:10735000C4E90122E2612174002D5DD02A689A42BD
:107360004DD2284603E00A689A424FD20846C169C6
:107370009B1A0029F7D12360E161C461002ED6D1A8
:1073800078783978884264D00B4603EB43034C1C71
:10739000BA7807EBC303E1B28A421A79397004BFA5
:1073A00000213970022A9C6844D0032A38D0012A6F
:1073B000E8D1227C002AE5D1D3F80CC0C4F804C07F
:1073C0001969A1605869E06099F800009B69A361A0
:1073D0000028B0D062609446ADE7A2EB0C0222F028
:1073E0007F428A4202D28B1A2360AFE70023012238
:1073F000C4E90033A360E36122746DB12A68C8F860
:107400000040D31A2B60E56125468FE7D21A0A6047
:107410002360E161C461B1E7C8F80040254685E713
:10742000002DAFD000232B74ED69002DFBD1C8F8DF
:107430000050A5E74DB1AC422B4603D1E4E09442A5
:107440002FD01346DA69002AF9D100232374884229
:107450009AD1BBF1000F01D1554553D0002D56D123
:10746000234E244A1F4C4FF480334FF40031012740
:10747000C2F880103C43C6F848334FF43C60C6F86D
:1074800008337760A047154BB7604FF43C601D6030
:10749000A047194B1D70002389F8003005B0BDE8E6
:1074A000F08FA34200F09180E0692168D861002844
:1074B00000F086802A4603680B440360AA424FF01E
:1074C00000033978787823741CBF15464FF0010B00
:1074D000BDE700BF88360020893600208C360020AA
:1074E000803600204063030070350020FEFF7F00DF
:1074F0000010014000E100E07D36002090360020C1
:107500007C360020009B002BC5D0002DA8D0434B1B
:10751000434A1C68D2F80465424FD5F800A0397878
:10752000331B23F07F43DD1CB9B93F493F4B4FF478
:107530008030C2F844034FF00108C2F804034FF44E
:107540000030C1F8800143F001030860C2F80080F8
:107550004FF43C60984787F80080AA452CBF04EBA5
:107560000A0363192E4923F07F43C1F84035D1F84F
:107570000425921B9B1B22F07F4223F07F430332A2
:107580009A4288D9294BD1F80425C1F8402543F007
:1075900001034FF43C609847234B4FF40032C3F88B
:1075A0000021002389F8003005B0BDE8F08F0026E7
:1075B0000096B1E674BB521A1A6001230093ABE641
:1075C000002339787878237441E71946EA69C8F8C6
:1075D000002092B9CDE90231114BDFF840C0012003
:1075E0009860019B89F80000CCF800204FF43C60C3
:1075F0009847DDE90231D8F80020C8690968D861E8
:1076000000287FF458AF59E72946DFE7C8F8003073
:107610009A467FE6C8F800309A46CCE78C360020C0
:10762000001001407D36002000E100E040630300CF
:107630002DE9F8431F4D204E204FDFF898804FF47E
:1076400080334FF400324FF001090024C6F8802047
:1076500047EA0907C5F848334FF43C60C5F80833DA
:10766000C5F80490B847C5F808904FF43C60C8F8D6
:107670000040B847124A134B13491C601470134B57
:10768000134A0C700B2114701C8099704FF48012F7
:10769000E023C6F8802186F814333260C5F8084527
:1076A00086F81133D5F80435C8F800302046BDE817
:1076B000F88300BF0010014000E100E040630300D8
:1076C0007D3600209036002088360020703500205E
:1076D000893600208C360020074B9B784BB132B1A5
:1076E00028B10368187C20B959745A617047072083
:1076F00070470820704700BF703500202DE9F04723
:10770000264CA37882B0002B3CD000283AD0042924
:107710003CD94369002B35D0814602A899F8113035
:107720000026012B00F8016D0CBF8846B0461746B5
:107730008A4600F073F86378A17822789DF80700F4
:107740005D1CEDB2A94208BF3546AA4222D003EB28
:10775000430304EBC3030121114AC3F808901971D4
:10776000D2F804256570C3E9032AC3E9058700F050
:107770007BF80C4B4FF480123046C3F8002102B066
:10778000BDE8F087082002B0BDE8F087072002B00E
:10779000BDE8F08700F068F80420F0E770350020BD
:1077A0000010014000E100E0F0B51A4CA37883B06E
:1077B00043B338B343692BB3064602A8002500F84B
:1077C000015D357400F02AF86278A77821789DF879
:1077D0000700531CDBB29F4208BF2B46994214D0CE
:1077E00002EB420204EBC202022196601171637047
:1077F00000F03AF8084B4FF480122846C3F80021F5
:1078000003B0F0BD082003B0F0BD00F02DF8042057
:10781000F9E700BF7035002000E100E070B4EFF33D
:10782000108472B60D4B9A68AAB90D490D4E012508
:107830009D60D1F8805035401D60C1F88060D1F85E
:1078400084505D604FF0FF33C1F88430027004B99A
:1078500062B670BC704701230370F8E7AC4C00209F
:1078600000E100E0FC06FFBD094B9A687AB170B9EF
:1078700010B4EFF3108172B6064A1C6814605C689D
:107880005460986001B962B65DF8044B7047704768
:10789000AC4C002000E100E0F0B443681BB1384A72
:1078A000D468A34246D20023364F0B807A684FF04B
:1078B000010C02F580544FF6FF76083294420ED840
:1078C000BCF1020FA1F800C007F1140754D07A6888
:1078D00002F58054083294424FF0020CF0D913683C
:1078E0000133EDD05388033302EB83039C42E7D38B
:1078F0009588B5420AD0158845B1956803689D42C0
:1079000011D05388033302EB8302D7E79C42D7D9C7
:107910001A6801321A46D3D05D88033503EB85031C
:107920009C42E5D2CCE7184B42601B8903810120C1
:10793000F0BC704712699342B5D813F00305B2D179
:10794000114A048912899442ADD104689A6894421C
:10795000A9D10C484268934203D902F58052934260
:1079600007D38269934207D902F58052934203D22A
:1079700001250D800120DBE70020F0BC704700BF2F
:10798000F02F0020CC360020B0360020F0B5334C6C
:10799000334DB4F802C062684FEA8C0606EB0C0364
:1079A00005EB830383B0596801F58050002A52D05B
:1079B0005388033302EB8302904213D8664405EBED
:1079C0008605EB68002B3DD0264B2748196802221C
:1079D0009A80052500230122257003B0BDE8F04000
:1079E00002F048B913680133E8D05388033302EB3F
:1079F00083038342E2D84FF6FF7E9788774514D001
:107A0000178897B162605388164D1748AE88296869
:107A1000033300259BB200959B0001EB86010325F3
:107A2000257002F093F803B0F0BD9842C6D91A68E9
:107A300001321A46C2D05F88033703EB87039842AE
:107A4000DBD2BBE7084804250122257003B0BDE85E
:107A5000F04002F00FB901F10802ADE7B0360020A6
:107A6000CC36002044390020F02F00202DE9F04FC3
:107A70009A4E346889B00746002C00F09A8022782C
:107A8000531E052B64D8DFE803F0562F2F1D1D036E
:107A9000002F40F0C580DFF868C29CF80C209CF8ED
:107AA0000030002A00F07181013B8CF80C70062B2D
:107AB0004ED8DFE813F0AB03F9021302EC014D00DE
:107AC000FC02DF02002F40F0AB802379012B00F095
:107AD0006981C0F0178103AD022B0397C5E90277D6
:107AE0002F613BD138463AE0B4F81490A37D002FC3
:107AF00000F0CE80022BE28840F2EC804FEA890849
:107B0000774D08EB090105EB8101D31C0A89134469
:107B10000B81E288C84405EB880803ADB8F80A3049
:107B2000033B9B1A0022A8F80A30AA600392C5E919
:107B30000322012013E0002F40F0C2802379032BA1
:107B400000F21981DFE813F097015A016D01780105
:107B5000002303ADC5E90333AB6003930F2004900A
:107B60002378023B042B0AD8DFE803F04E362A03C1
:107B70004A0004238DF80C30E388ADF81830594CD6
:107B800023680BB128469847636813B12846984785
:107B9000002355495548336001F0DAFA0121544871
:107BA00001F08EFB002870D034680027002C7FF491
:107BB00066AF4D494D4801F09DFA044630605EE7DE
:107BC00003238DF80C30E388ADF818302389ADF825
:107BD0001A30E3680593D2E702238DF80C3023892D
:107BE000ADF81830A388ADF81A30E3680593A37D8B
:107BF000A3F10603B3FA83F35B098DF81C30BEE7EB
:107C000005238DF80C30BAE701238DF80C30238959
:107C1000ADF81830A388ADF81A30E3680593AEE7E5
:107C200003AD0023AB600393C5E90333012096E75E
:107C30000B68013300F05E824B88033301EB830352
:107C40009C45C0F05782B1F804804FF6FF7EF045A6
:107C500000F05282B1F800B0BBF1000F00F04C828E
:107C6000E3880160434540F03B8200230093214AB2
:107C70002148042301F06AFF002840F0DF8209EB6D
:107C8000890905EB890501232B7409B0BDE8F08F44
:107C90004FEA8908124D08EB090105EB8101B1F8A3
:107CA00008A0496801EB8A0A062B00F23582DFE85A
:107CB00013F0290165017701A101B30137015801D2
:107CC00003AD0E4A002353600393C5E902332B61D1
:107CD000012044E7024D4FEA89081BE7C83600201F
:107CE000CC360020A0360020C0360020442D0020D5
:107CF0004039002048630300F02F0020A836002000
:107D0000B036002002232371CDE9047703ADE36888
:107D1000039328460DF10A01FFF7BEFD002800F08D
:107D2000A1810499A84A8B88E3800B882381A74806
:107D300000970423BDF80A4001F008FF002840F036
:107D40007182A34B04EB840403EB840401232374AA
:107D50009BE700239A001A4405EB82030020596830
:107D60000090082305F822009A4A984801F0EEFE98
:107D700000288AD03468984A03AD002353600393E7
:107D8000C5E902332B610E20E9E6072B00F22882B9
:107D9000DFE813F0F801260226027F0113027001CA
:107DA0007001CE018C4B1B78002B00F04E818B486C
:107DB000B0F80490B9F1010F13D8854D09EB890291
:107DC00005EB8202043212F8043C002B00F08281A1
:107DD00009F1010399B201299946838002F1140245
:107DE000F1D903AD082200217C480DF0ADFD002043
:107DF000A8600390C5E903003468B0E6744D2B78A1
:107E0000022BA6D02B7D022B00F01682724B03AD05
:107E1000002001221A7003905860C5E90200286111
:107E20009DE66F4A694811680023237102249480FB
:107E3000012201F01FFF9BE7694F664A39686348DA
:107E4000634D4FF0000984F804900823CDF80090AA
:107E500001F07CFE634B3C685B88B98803EB8303CD
:107E600005EB830205F8239053683B6002235460BE
:107E70001181BB807CE75A4B5B4A19685348012348
:107E8000237100230093082301F060FE70E7BCF823
:107E900002304F4D03EB830305EB8305EB68002BAA
:107EA00000F03D814E4B4948196802229A80052214
:107EB0008CF800200023012201F0DCFE00283FF4B2
:107EC000E4AE03AD002341F61D523468AB6003936A
:107ED000C5E90333904208BF184640E6DCF80420A9
:107EE0003F48538884880168384801EB8401033394
:107EF000002400949BB203249B008CF8004001F006
:107F000025FEDBE702230022A375042300925146DD
:107F1000E2182E4801F01AFE00283FF4B6AE12E037
:107F2000324B334AB3F800A051682848264A002350
:107F30004FF0060C84F816C00093042301F006FEEF
:107F4000002800F06881A37DE288022B4FF00E002C
:107F50000AD8C14405EB89056B89033B9B1A6B81E9
:107F6000AFE7E28841F61D5008EB090105EB8101FE
:107F7000D31C0A8913440B81E288EAE7032A0CBF69
:107F8000052306230022A3750AF1040100920423AD
:107F900004F108020D4801F0D9FD0028D3D174E6A0
:107FA00023690A48002B14BF032301230022A37571
:107FB0000AF108010092042304F10C0201F0C6FD4D
:107FC0000028C0D161E600BF48630300F02F002005
:107FD000CC3600204C630300A83600205439002022
:107FE00044390020B036002054630300503900208B
:107FF00094360020E388226995484FF0010C002751
:1080000084F816C00AF10C019B00009701F09EFD58
:1080100000283FF43AAE96E78E4BA2698E491A606B
:10802000002718465F60FFF737FC002800F0FD804E
:108030000223A375042351460097E218844801F0F7
:1080400085FD00287FF47FAF1FE603AD0822394687
:1080500082480DF079FC0397C5E902772F613468F7
:1080600002207CE50A200023C5E90033C5E902337C
:108070002B6174E57A4B7B4A19687548002300939D
:10808000CCF8043007238CF80030082301F05EFDA3
:1080900014E7734ADCF804109388498803330B44CF
:1080A000022193808CF80010FFF770FC06E7BCF803
:1080B00002206D4D9300134405EB83050620002339
:1080C00069686A4A00938CF800000823604801F050
:1080D0003DFDF3E61368016803F5805C03F1080ACF
:1080E000002900F096804B88033301EB83018C4517
:1080F0003FF69EAD07606BE69C45FBD919680131E0
:108100001946F7D0B3F8028008F1030803EB88039F
:108110009C45BFF498ADEDE7E2880F2024E70422E8
:108120008CF8002069684A48012201F0A3FDC5E6E9
:1081300001238CF800309CF80A3043B14A4DEB68BB
:1081400000228CF80A2013B92A7C002A7BD19CF8E3
:108150000B304BB1444D2B6A00228CF80B201BB91D
:1081600095F82430002B6DD103AD0020A8608CF869
:108170000000ACF80200CCF804000390C5E903004D
:108180003468ECE4384DBCF808102A7D2B78B2FA3C
:1081900082F252090131B3FA83F35B098CF80B20A8
:1081A000ACF80810002201218CF80A30ACF802204B
:1081B0008CF80C208CF80010BFE7BCF802202A4D88
:1081C000274C9300991805EB810120684F68B4F89B
:1081D00004E0486002202760A1F808E0A0806AE778
:1081E000013B062B3FF6B4AC01A252F823F000BFCE
:1081F0000D820200A9800200DD7E02008F7E020057
:10820000517B0200AF800200758002009CF80A30AA
:1082100093E751466BE70AEB8A0A05EB8A050123CF
:108220002B7432E534680E201DE703AD0390C5E9D9
:10823000020028610A2092E401238BE534680E20B5
:1082400003AD10E70123ACF80230FFF79FFB35E6E2
:10825000F02F00209436002050390020543900209F
:108260004439002054630300CC3600204C630300E3
:108270004068FFF7FBBB00BF38B5084B1A68022AFD
:108280000AD01D68064C02460121184644F82520F4
:1082900001F00AF8002038BD0C2038BD4C39002010
:1082A000A03600202DE9F04FA24C8BB0227800239D
:1082B000CDE90533CDE9073309936AB19E4E3368A2
:1082C0000BB105A8984773680BB105A8984700251E
:1082D00028460BB0BDE8F08F201D02F0FF0600F02D
:1082E000FBFF07460028F2D14FF010234FF08052D9
:1082F0005B6911695269DFF86482581C08BF02FB90
:1083000001F3C8F810308D49A3F5405340460022D0
:10831000C8F80C3001F0F0FB05460028D8D11C232A
:108320004FF4137286498748DFF834B2DFF834A27D
:1083300000F06AFED8F80C000396032200F54053C3
:10834000019299462A46002800F0948003687E49ED
:108350008B4240F08F8043687C498B4200F004815F
:1083600001318B4240F08680039B63B102EB820CAB
:108370000BEB8C0102260132DAF800300BF82C608E
:1083800092B24B600E818168CAF800004FF0020C77
:108390000131AAF804C000F5805300F1080627D087
:1083A0004189033106EB81008342C0F0A3804FF680
:1083B000FF7E0292B08870450AD0308840B1644A8E
:1083C000B068D2F80080404502D91060718803314E
:1083D0008C441FFA8CFCAAF804C07088033006EBAA
:1083E0008006B3427BD8BCF1020F029A40F026818E
:1083F00004210F4399451846A5D1019B012B7FD934
:10840000FFB2022F7CD0062F00F08480002F77D09F
:1084100004A94C4800F032FE1C22044600210DF055
:1084200093FA002C00F008810123013F23700A2FEA
:1084300009D8DFE807F019081908160816081C06FD
:108440001C000223237104A93E4800F043FE0121D1
:10845000404800F01DFF00287FF439AFFFF706FB0E
:1084600036E701232371EEE700232371EBE70323B3
:108470002371E8E700F58053014601E08B4217D0F5
:108480000E68013601F10401F8D0019E02EB820171
:108490000BEB810806F1FF3E01324FF0030C1FFA8F
:1084A0008EF6019692B20BF821C0C8F80400A1E73D
:1084B000DAF8001031B3284E02EB82010BEB810C8D
:1084C0007280022602F1010E0BF821601FFA8EF273
:1084D000CCF80400ACF8086047F001078AE731687F
:1084E000013180D07188033106EB81008342BFF4F3
:1084F00061AF029A4FF48061AAF80410082178E76E
:108500000B25E5E60221AAF804100121CAF80000B3
:108510000391E1E7084E3368012100222170626077
:108520000BB105A898477368002B3FF4D0AE05A89F
:108530009847CDE6A8360020A036002078650300D5
:10854000F4360020442D0020DEC0ADDEFE011EF119
:10855000C436002040390020B0360020F02F002023
:10856000CC360020443900204FEA820C0CEB020389
:108570000BEB830E00210BF823104FF00203AEF833
:108580000830CEF804008668013600F5805300F10B
:10859000080142D0408900F1030801EB88084345F7
:1085A00030D302260292E046B1F804C04FF6FF72C3
:1085B000944539D0B1F800C0BCF1000F34D0204A46
:1085C000D1F808C01268944505D91D4ABEF8086064
:1085D000C2F800C0488806440336B6B2AEF8086058
:1085E0004888033001EB80018B421BD908680130B9
:1085F00018D0488800F1030C01EB8C0C6345D3D2F2
:10860000029AC44694440BEB8C0C4FF480614FF0FB
:1086100001008CF81000ACF80810013292B247F05B
:108620000207E7E6029AF8E74FF001028EF8102001
:108630004888BEF80860CEE7082549E60821D8E654
:10864000C436002008B301B370B582B00C460DF1FA
:1086500006010546FFF720F9A0B1BDF806000C4B56
:108660006E6800EB800003EB800001210C3000F00D
:108670001BFE26606B6801220C3300206360AA7227
:1086800002B070BD0A2002B070BD0520704700BF67
:10869000CC360020E8B110B582B00DF106010446D9
:1086A000FFF7FAF890B1BDF806300C4A03EB8303EC
:1086B00002EB8303DA6872B1A27A62B1DA68002150
:1086C000013A0846DA60A17202B010BD0A2002B079
:1086D00010BD05207047062002B010BDCC3600202A
:1086E0001E4B1B78C3B1D0B1CB1C9BB240F2FD3204
:1086F000934222D8F0B41A4A16783EB955891489A3
:108700002C441C44A4B2B4F5806F19D3147D4CB131
:1087100007231846F0BC704702231846704705230C
:1087200018467047D58B948B2C441C44A4B2B4F5E6
:10873000806FEDD20126374603E0092318467047C3
:108740003746BC003C4402EB84022B445381068034
:10875000418000231846F0BC704700BFA8360020B7
:10876000CC360020134B1A78D2B1034600B30288EE
:10877000022A17D810B41048598802EB820200EB85
:1087800082028C1C508984420EDAC1F57F41FD3192
:108790000024014451811C6020465DF8044B704761
:1087A000022070470420704704205DF8044B704796
:1087B00005207047A8360020CC360020484B1B7897
:1087C000002B32D0002934D00A884FF6FF739A422A
:1087D00029D04B883BB34B689B072CD12DE9F04344
:1087E000B1F8088008F103039BB240F2FD329342D6
:1087F00083B01CD83B4A17783FB956891489344452
:108800001C44A4B2B4F5806F17D3147D3CB9D68B49
:10881000948B34441C44A4B2B4F5806F5DD307201C
:1088200003B0BDE8F08304207047022070470920A0
:10883000F6E70520704703207047BC464FEA8C09D5
:10884000E14402EB890933440C46054601A9264858
:10885000A9F80A3000F012FC1C22064600210DF097
:1088600073F85EB302234FF00009B782337086F8C5
:1088700016906368336101211C4800F015FDF0601B
:10888000238833816388B38001A9A6F80A90A6F8EB
:108890000680154800F01EFC45B1C5F80490F2684A
:1088A000134B2A601B8985F80A902B8101211148FE
:1088B00000F0EEFC044660B10020B1E7B9F80A30E0
:1088C000C8F57F4808F1FD089844A9F80A800820F7
:1088D000A6E7FFF7CBF82046A2E70127BC46ADE7A5
:1088E000A8360020CC360020442D0020C4360020BD
:1088F000B036002040390020002A50D0364B1B787B
:10890000002B4AD000294AD02DE9F0430C884FF6BD
:10891000FF739C4283B046D04B88002B43D04F68F6
:1089200017F003073DD10C46064601A92B48B2F8C3
:108930000090B2F8028000F0A1FB1C2205463946E7
:108940000DF002F8002D32D00223AF75A5F8149077
:108950002B7063682B610121214800F0A5FCE860C1
:1089600023882B816388AB8001A9A5F806806F81DD
:108970001A4800F0AFFB36B17760EA68194B3260F5
:108980001B89B77233810121174800F081FC04462E
:10899000E8B1002003B0BDE8F08302207047052055
:1089A00070470320F6E7042003B0BDE8F0830F4BC7
:1089B00009EB890903EB8909C8F57F48B9F80A3042
:1089C00008F1FD089844A9F80A800820E2E7FFF7BB
:1089D0004DF82046DEE700BFA8360020442D0020D9
:1089E000C4360020B036002040390020CC360020AC
:1089F000002836D0484B1B78002B30D0002930D0CF
:108A00000A884FF6FF739A422FD04B886BB34B689E
:108A10009B0728D12DE9F043B1F8089009F1030331
:108A20009BB240F2FD32934283B020D83B4A157886
:108A30003DB9578914893C441C44A4B2B4F5806FF5
:108A400017D3147D3CB9D78B948B3C441C44A4B2FF
:108A5000B4F5806F5BD3072003B0BDE8F08302203C
:108A60007047052070470320704704207047092095
:108A7000F2E7A846AC464FEA8C05654402EB850553
:108A80003B4406460C4626486B8101A900F0F6FAE5
:108A90001C22074600210CF057FF57B30025032383
:108AA000A7F814803B70BD7563683B6101211D48C8
:108AB00000F0FAFBF86023883B816388BB800423C5
:108AC000A7F80690BB753368BB6101A97D81144886
:108AD00000F000FB7560FA68134B32601B89B572B9
:108AE00033810121114800F0D3FB044658B12846D8
:108AF000B2E76B89C9F57F4909F1FD099944A5F8E9
:108B00000A900820A8E7FEF7B1FF2046A4E74FF03F
:108B10000108C446AFE700BFA8360020CC360020CD
:108B2000442D0020C4360020B036002040390020FB
:108B3000174B1B7803B308B370B582B001A9044684
:108B4000144800F09BFA1C22064600210CF0FCFEA3
:108B5000B6B104230025337035712368F36001A991
:108B60000C4800F0B7FA01210B4800F091FB0446D5
:108B700048B1284602B070BD0220704705207047FA
:108B8000082002B070BDFEF771FF204602B070BD34
:108B9000A8360020442D002040390020184B1B78B7
:108BA00023B34FF6FF7398421ED070B582B001A96F
:108BB0000446144800F062FA1C22054600210CF01D
:108BC000C3FEADB105230126EC8001A92B702E71E7
:108BD0000C4800F07FFA31460B4800F059FB044680
:108BE00048B1002002B070BD0420704702207047D9
:108BF000082002B070BDFEF739FF204602B070BDFC
:108C0000A8360020442D002040390020194B1B7845
:108C1000EBB110B582B001A9174800F02FFA1C2261
:108C2000044600210CF090FE0CB30623237001A92A
:108C3000114800F04FFA114B1A7852B9012110482F
:108C400000F026FB044668B1002002B010BD0220EF
:108C50007047012201210A481A7300F019FB0446EB
:108C60000028F1D1FEF702FF204602B010BD082017
:108C700002B010BDA8360020442D0020B0360020E0
:108C800040390020324B1B78002B4BD000283CD0C1
:108C900000293AD08B88012B58D8F0B52D4D03EB25
:108CA000830205EB8205013304359CB24FF0000CC2
:108CB0004FF6FF7715F8043C6BBB2A680B6802F58A
:108CC0008056002B30D05A88033203EB82039E4239
:108CD0001FD91A6801321CD05A88033203EB820272
:108CE000964216D3B3F804E0BE4510D0B3F800E0C6
:108CF000BEF1000F0BD00B609B6803600A68164B37
:108D000042601B8903810020F0BD05207047964218
:108D10000DD8C1F800C0022C8C8005F1140513D0C9
:108D20000224C7E70220704702F10803CFE7136867
:108D300001331346EDD0B2F802E00EF1030E02EB60
:108D40008E029642CED2E4E70A20F0BD0A20704798
:108D5000A8360020CC360020B03600202DE9F043A4
:108D6000344C2478002C60D03AB333B39F88012F61
:108D70005ED8314C07EB870C013704EB8C0CBFB28B
:108D80004FF6FF7E4FF000089CF8004074B91C6855
:108D9000DCF8045005F58056002C43D06588033577
:108DA00004EB8504B4420BD3C3F80080022F9F80EC
:108DB0000CF1140C3CD00227E6E70520BDE8F08357
:108DC00025680135F0D06588033504EB8505AE4292
:108DD000EAD3B4F80490F14515D0B4F80090B9F195
:108DE000000F10D01C60A5888542D1D125888D4206
:108DF000CED1A16811601968104B51601B89138195
:108E00000020BDE8F083AE42CED92C6801342C4658
:108E1000CAD0B5F8029009F1030905EB8905AE4205
:108E2000D7D2C1E705F10804BCE70220BDE8F08312
:108E30000A20C3E7A8360020CC360020B036002038
:108E4000334B1B78002B5CD051B34AB32DE9F04172
:108E50009588012D5AD82F4F05EB850307EB830723
:108E600001353B78ADB24FF6FF7C4FF0000E43B1B9
:108E7000022D958007F1140748D03B780225002B7E
:108E8000F6D113687C6804F58056002B3BD05C88D3
:108E9000033403EB8403B34204D3C2F800E0E7E7F2
:108EA000052070471C680134F7D05C88033403EB5D
:108EB0008404A642F1D3B3F80480E04512D0B3F89D
:108EC0000080B8F1000F0DD013601C888442D9D106
:108ED0009B680B601268104B4A601B890B81002055
:108EE000BDE8F081A642D8D9236801332346D4D007
:108EF000B4F8028008F1030804EB8804A642DAD231
:108F0000CBE70220704704F10803C4E70A20E7E733
:108F1000A8360020CC360020B0360020334B1B781A
:108F2000002B5CD051B34AB32DE9F0419588012D57
:108F30005AD82F4F05EB850307EB830701353B78A4
:108F4000ADB24FF6FF7C4FF0000E43B1022D95807D
:108F500007F1140748D03B780225002BF6D113689F
:108F60007C6804F58056002B3BD05C88033403EB0F
:108F70008403B34204D3C2F800E0E7E7052070475A
:108F80001C680134F7D05C88033403EB8404A642E8
:108F9000F1D3B3F80480E04512D0B3F80080B8F103
:108FA000000F0DD013609C888442D9D19B680B6060
:108FB0001268104B4A601B890B810020BDE8F081CC
:108FC000A642D8D9236801332346D4D0B4F802800E
:108FD00008F1030804EB8804A642DAD2CBE70220AA
:108FE000704704F10803C4E70A20E7E7A836002029
:108FF000CC360020B036002020B119B103680B60D8
:10900000002070470520704799B110B4B2FBF3F40B
:1090100003FB1424A4B244B9C0E900148460828123
:10902000C38120465DF8044B704709205DF8044B6E
:1090300070470E20704700BF82B050E8022FC188F1
:10904000B2EB324F4FF0000317BF92B241EA014139
:1090500042EA014104E04268B2EB324F08BF01230B
:1090600040E80212002AE8D18DF807309DF8073059
:10907000002B0CBF1120002002B0704730B482B02A
:1090800050E8013F9DB2C48925448489A54228BF88
:109090002D1B0489A54202BFBFF32F8F002207E0DA
:1090A000C5EA030540E80154002CE9D14FF0010264
:1090B0008DF803200193019B9DF803200B602AB1DA
:1090C0000B880068184402B030BC704702F0FF0300
:1090D0001846F8E70A884B889A4201D0002070476A
:1090E00050E8012FC2EA024240E80123002BF7D1E9
:1090F0000120704730B482B050E8023F1FFAA3F558
:10910000C488A54202BFBFF32F8F00220DE0C4899F
:1091100025448489A54228BF2D1BC3EA054540E8A4
:109120000254002CE8D14FF001028DF80320019386
:10913000019B9DF803200B602AB14B8800681844FE
:1091400002B030BC704702F0FF031846F8E700BFDA
:109150000A884B889A4201D00020704750E8022FBD
:10916000C2EA224240E80223002BF7D101207047D7
:1091700001F01F024B09012100EB8300914000F038
:109180006FB800BF01F01F0201234909934000EBB3
:109190008100D94300F070B84B0901F01F0150F86D
:1091A0002300C84000F00100704700BF2DE9F84FD0
:1091B00001F1FF394FEA591300F104090F46064641
:1091C00009EB8309044600254FF0010823686FEA84
:1091D000030B9BFAABFBBBFA8BFBBBF1200F20D040
:1091E000AB445F450CD81CE02368DB4393FAA3F340
:1091F000B3FA83F3202B05EB030B12D05F4510D994
:109200000BF01F0A4FEA5B1008FA0AF106EB800028
:1092100000F01AF820FA0AF0C307E5D45846BDE872
:10922000F88F04344C4505F12005CFD1BB46584694
:10923000BDE8F88F50E8002F0B4640E8003C9CF05A
:10924000000FF7D11046704750E8002F42EA0103A3
:1092500040E8003C9CF0000FF6D11046704700BF7C
:1092600050E8003F43EA010240E8002C9CF0000F68
:10927000F6D11046704700BF50E8003F03EA0102F4
:1092800040E8002C9CF0000FF6D11046704700BF5C
:1092900050E8002F02EB010340E8003C9CF0000F77
:1092A000F6D11046704700BF50E8003F03EB0102C3
:1092B00040E8002C9CF0000FF6D11046704700BF2C
:1092C00050E8003FA3EB010240E8002C9CF0000FA7
:1092D000F6D11046704700BF012350E800CF4CEA9A
:1092E000030240E8002191F0000FF6D1604670477C
:1092F000012350E8002F42EA030C40E800C191F03E
:10930000000FF6D160467047002350E800CF0CEA0A
:10931000030240E8002191F0000FF6D1604670474B
:10932000002350E8002F02EA030C40E800C191F04E
:10933000000FF6D160467047B8B130B4D0E90112E1
:10934000521A0468D2B2531E2160DBB242B10168E6
:109350000A685C1E551C0D601370E3B2FF2BF6D13A
:1093600003680020187130BC70470E20704700BFA2
:10937000F0B583B002AB002503F8015D0446184642
:10938000FEF74CFAD4E900311A688A4210D9511E0E
:1093900019602168A3680F6812F8015C0A79A68A2F
:1093A000E068DB1BDBB29A4206FB050538BF0B7198
:1093B0009DF80700FEF758FA284603B0F0BD00BF3D
:1093C00030B583B002AB002203F8012D05461846E4
:1093D0000C46FEF723FA2A681368591C1160E968E5
:1093E000AA8A641AB4FBF2F41C709DF80700FEF719
:1093F0003BFA03B030BD00BF826842B110B50446ED
:1094000043690168006998470023A36010BD704755
:109410000EB400B582B0039929B102AA04AB42F898
:10942000043D00F08BF802B05DF804EB03B0704728
:109430002DE9F84F88469045174605461E46DDE95A
:109440000AB175D343464FF00109B3FBF7F39F42CE
:1094500009F10109F9D9B14538BFB14611F0010A46
:10946000AA6802D1BBF1000F43D1012402E0013E02
:1094700007FB04F4012EFAD8B8FBF4F18F42F7D9B8
:109480002D4E05E0B4FBF7F4A4B1B8FBF4F1AA68E3
:10949000705C531CAB602B689854D5E901329A423A
:1094A00004FB1188EED32846FFF7A6FFB4FBF7F4C0
:1094B000002CEAD1BAF1000F15D0BBF1000F12D089
:1094C000CB4510D92024AB682A68591CA960D45414
:1094D000D5E901329A420BF1FF3B06D2BBF1000FF6
:1094E00001D0CB45EFD1BDE8F88F2846FFF784FFC8
:1094F000F4E78B0717D42024CB45B6D92B68511C31
:10950000A9609C54D5E901329A420BF1FF3B05D288
:10951000BBF1000FA9D0CB45F0D1A6E72846FFF755
:109520006BFFAA68F4E7002E0CBF30242024E3E789
:109530004FF001098FE700BF6C630300002900F0C2
:10954000F4812DE9F04F054685B092460C460B7824
:10955000DFF8A0B501E0237893B1013483B1252B66
:1095600015D0AA682968501CA8608B54D5E901322F
:109570009A42F0D32846FFF73FFF2378002BECD127
:109580002B7B002B40F0148105B0BDE8F08F214605
:10959000002711F8012B2D2A00F0E180302A00F07D
:1095A000E2802B2A00F0D2802A2A00F0E080A2F18B
:1095B0003006F3B2092B03D9B8E1A3F13006014616
:1095C000084606EB860310F8012BA2F13004092CA3
:1095D00002EB4303F1D92E2A00F0D580002301319C
:1095E00001E011F8012B02F0FB0068280C46F8D0CE
:1095F000253A532AAFD801A151F822F0BD970200B5
:1096000057950200579502005795020057950200A2
:109610005795020057950200579502005795020092
:109620005795020057950200579502005795020082
:109630005795020057950200579502005795020072
:109640005795020057950200579502005795020062
:109650005795020057950200579502005795020052
:109660005795020057950200579502005795020042
:109670005795020057950200579502005795020032
:109680005795020057950200579502005795020022
:109690005795020057950200579502005795020012
:1096A0005795020057950200579502005795020002
:1096B00057950200579502005795020057950200F2
:1096C0005795020057950200D79702005795020060
:1096D00057950200579502005795020057950200D2
:1096E00057950200579502005795020057950200C2
:1096F00057950200F1970200139802005795020057
:1097000057950200579502005795020013980200E2
:109710005795020057950200579502005795020091
:109720005795020057950200639802005795020072
:1097300057950200D7980200579502001199020030
:109740005795020057950200D797020047F004078B
:109750000C46214611F8012B2D2A7FF41FAF47F04C
:1097600001070C46F5E747F002070C46F1E7DAF887
:1097700000301A1DCAF8002062781E682E2A04F1F3
:1097800002007FF42BAF4A78A2F13003092B00F2DC
:109790005081002303EB830302EB430310F8012FF6
:1097A000A2F130010929A3F13003F3D9014616E7EC
:1097B000284605B0BDE8F04FFFF71EBEAB682A682B
:1097C000591CA9604FF02501D154D5E901329A42C4
:1097D000FFF4C1AECEE6DAF80020111DCAF8001081
:1097E00011682846CDE900671022FFF721FEB2E696
:1097F000DAF80020131DCAF80030AB682968127827
:10980000581CA860CA54D5E901329A42FFF4A3AEAD
:10981000B0E6DAF80020111DCAF80010D2F8008076
:1098200088EAE872A2EBE872092A4FF0010107DD2D
:10983000AF48A0FB0202D208092A01F10101F7DCBE
:10984000994238BF1946894607F00202002E71D1AD
:109850002AB1002B00F04781FA0700F18D80002625
:109860008AE0DAF80020131DCAF80030AB682968D6
:109870001768581C3022A860CA54D5E901239342C6
:1098800080F028812A68581C7821A860D154D5E935
:109890000123934280F019810F2F03D93A46120910
:1098A0000F2AFCD84FF0805603E036093FF453AE40
:1098B000AB682968B7FBF6F2581CA8601BF80200D9
:1098C000C854D5E90131994206FB1277EDD32846F9
:1098D000FFF792FDE9E7DAF800301A1DCAF8002018
:1098E000D3F80080FB077ED54746A7EB080917F899
:1098F000013B002B5DD0AA682968501CA8608B54DE
:10990000D5E901329A42F0D32846FFF775FDECE71E
:10991000DAF80020111DCAF8001011682846CDE9B8
:1099200000670A22FFF784FD15E670470846002607
:10993000214650E6B8F1000F01DB780700D5013E63
:1099400002B1CBB1F90717D4002E88D0B14513D29C
:1099500020220393A9682B68481CA8605A54D5E9B3
:109960000131994206F1FF365DD2002E00F0BD8034
:10997000B145EFD1039B4E46B8F1000FC0F2928083
:109980007A070AD5A9684A1CAA602A682B20505475
:10999000D5E90121914280F0928007F00302022A6A
:1099A0005FD0CDE9006741460A222846FFF740FD17
:1099B000D1E54E457FF6CFAD202705E04E453FF47B
:1099C000CAAD002E3FF4C7ADAB682A68591CA96028
:1099D000D754D5E901329A4206F1FF36EED3284634
:1099E000FFF70AFDEAE7B8F1000F24D040460BF07C
:1099F000CAFF0746BE4220D9FEB14FF0200902E05F
:109A0000BE421AD0CEB1AB682A68591CA96002F8D0
:109A10000390D5E901329A4206F1FF36F0D3284689
:109A2000FFF7EAFCECE728460292FFF7E5FC029A12
:109A30009BE70146D2E54746DCE708F1FF3818F816
:109A4000013F002B3FF487ADAA682968501CA8602D
:109A50008B54D5E901329A42F1D32846FFF7CCFC6A
:109A6000EDE7002B9DD1002E3BD0B14599D202935A
:109A700023464C469946AA682B68501C4FF030018B
:109A8000A8609954D5E901329A4206F1FF3605D211
:109A90002EB3B442EFD1029B4C4682E72846FFF733
:109AA000ABFCF5E7A9684A1CAA602A682D2050542F
:109AB000D5E901219142C8F10008FFF46EAF2846B4
:109AC0000293FFF799FC029B67E72846FFF794FC97
:109AD000AB68E1E62846FFF78FFCAB68D2E6029B55
:109AE0004C4600265DE71E4646E7039BB7E600BFEF
:109AF000CDCCCCCC6C63030010B582B038B1A9B129
:109B000001600B68114602B0BDE8104018470A4AD0
:109B10000A4B10880A4A0B490E24000440F0010049
:109B20000094FDF717F80E2002B010BD024A034B57
:109B30001088054AEFE700BFD82F00207C630300A0
:109B40003064030038640300646403002DE9F041CD
:109B500082B0002850D0002A5ED0D0F800C0BCF1FE
:109B6000000F63D01C46002B31D04768D7F8048023
:109B7000B3FBF8F708FB1737002F38D18F0721D137
:109B800012F0030F4DD1C768B9420FD22E4A2F4BA6
:109B900010882F4A2F491024000440F0010000943F
:109BA000FCF7D8FF204602B0BDE8F0814E1E0569E3
:109BB0003444AC42EAD8DCF80C40A44602B0BDE81C
:109BC000F0416047204A214B1088234AE2E71E4AB1
:109BD0001E4B1088214A1F490924000440F001004F
:109BE0000094FCF7B7FF204602B0BDE8F081164AAA
:109BF000164B10881A4AEEE7134A144B1088194A7C
:109C000014490E24000440F001000094FCF7A2FF68
:109C1000204602B0BDE8F0810B4A0C4B1088124A76
:109C2000EEE7094A094B1088104AB3E7064A074B8A
:109C3000108808490E4A0824000440F001000094EE
:109C4000FCF788FF2046AEE7D82F00209063030082
:109C50003465030038640300F8640300746403008F
:109C6000CC64030030640300C46403001065030087
:109C7000B8640300F0B583B000283FD0D0F800C02E
:109C8000BCF1000F48D02AB34768D7F800E00EF1C6
:109C9000FF370F422DD1C768B9420ED2254A264B55
:109CA0001088264A26491024000440F00100009440
:109CB000FCF750FF204603B0F0BD4D1E04690EFBBB
:109CC0000255A542EAD8DCF81040A44603B0BDE82E
:109CD000F0406047174A184B10881949194A09245F
:109CE000000440F001000094FCF734FF204603B06C
:109CF000F0BD104A104B1088134AD3E70D4A0E4BA3
:109D000010880F49114A0E24000440F0010000940D
:109D1000FCF720FF2046CEE7064A074B108808498B
:109D20000B4A0824000440F001000094FCF712FFE5
:109D30002046C0E7D82F0020A4630300E06303009F
:109D40003864030074640300B863030030640300E4
:109D5000B864030018B103680BB1DB69184770B52C
:109D60000D4C0E4D0E4B2D1BA3FB05352D0910D0B0
:109D700005EB850504EB850501E0AC4209D02368BD
:109D800020461434002BF8D0DB6998470028F4D023
:109D900070BD002070BD00BFF02F002004300020F7
:109DA000CDCCCCCC29DF704728DF70470846704700
:109DB00000207047024B187A003018BF012070470E
:109DC000E8390020034B187A0122B0FA80F05A7467
:109DD00040097047E839002008B510461A460BF0D4
:109DE000A8FD002008BD00BF08B5142200210448CA
:109DF0000BF0AAFD0348FFF71FF9002008BD00BFC4
:109E0000E8390020582D002010B5094C094B43605B
:109E10002046FFF761FA40B907F08EFD1C2320743D
:109E20008C2205490548FFF7EFF8002010BD00BF60
:109E3000E83900206C6503005C390020582D0020B3
:109E400030B55E4C237A87B0002B3AD05C4B1B6850
:109E5000022222721A79002A3ED0012A0CD1D3E9BB
:109E600003021044FFF7A0FF002849D0112803D1B6
:109E70000123237207B030BD19688A68C2B100227D
:109E800068460092C0E902220325026101959A68A2
:109E900005921A79002A4BD0012A07D102228DF8A7
:109EA0000020DA68120302925B6904938B6898477A
:109EB00000234449444823726360FFF749F907B01F
:109EC00030BD40494048FFF715F93D4A0346106050
:109ED0000028BDD16060F2E7D3E90525521BB2F539
:109EE000805F28BF4FF48052D3E903109208012A03
:109EF00038BF012229442844FFF754FF0028B5D178
:109F0000227C002ADBD1227A002AD8D0022A0AD168
:109F1000E0601A79DAB1012A05D1D3E904210132CE
:109F20008A421A611FD0637C73B107F0F5FCC6E763
:109F300001228DF800201A690292DA6803925B69A7
:109F400004938B689847B3E7FFF77AFFB7E7D3E945
:109F50000512881AB0F5805F94BF121802F580527E
:109F600091429A61DFD10022227219688868A8B1F3
:109F700068460092C0E90122C0E903229A6805926E
:109F80001A7982B1012A07D102228DF80020DA68FD
:109F9000120302925B6904938B68984709490A4847
:109FA000FFF7D6F8BFE701228DF800201A69029268
:109FB000DA6803925B690493EEE700BFE83900209A
:109FC000003A0020FC390020582D00202DE9F047F0
:109FD00082B082468946174801A990461F46FFF77E
:109FE0004DF810B3044600211C220D46124E0BF012
:109FF000ABFC0A9BC4F800A0A360C4E903896761B5
:10A0000001A925710B48FFF765F8301DFFF764F9CA
:10A0100038B9747C34B9FFF713FF204602B0BDE8AD
:10A02000F087284602B0BDE8F087042002B0BDE802
:10A03000F08700BF582D0020E83900202DE9F043BB
:10A0400083B081460D46164801A917469846FFF78A
:10A0500015F808B304461C2200210BF075FC114EC4
:10A06000C4F8009001232D0BC4E90285676101A9A2
:10A0700023710B48FFF72EF8301DFFF72DF938B983
:10A08000747C34B9FFF7DCFE204603B0BDE8F083F2
:10A09000002003B0BDE8F083042003B0BDE8F083E6
:10A0A000582D0020E839002000F0FD03012B00D0DE
:10A0B000704730B5604CA0F10100B0FA80F0237A0F
:10A0C0004009002287B020746274002B3AD05B4BA9
:10A0D0001B68022222721A79002A3ED0012A0CD172
:10A0E000D3E903021044FFF75FFE002849D011288E
:10A0F00003D10123237207B030BD19688A68C2B149
:10A10000002268460092C0E90222032502610195FF
:10A110009A6805921A79002A4BD0012A07D10222A7
:10A120008DF80020DA68120302925B6904938B6851
:10A13000984700234249434823726360FFF708F8B9
:10A1400007B030BD3E493F48FEF7D4FF3B4A0346C7
:10A1500010600028BDD16060F2E7D3E90525521BED
:10A16000B2F5805F28BF4FF48052D3E90310920804
:10A17000012A38BF012229442844FFF713FE002892
:10A18000B5D1227C002ADBD1227A002AD8D0022A3B
:10A190000AD1E0601A79CAB1012A05D1D3E90421B4
:10A1A00001328A421A611DD0637C63B107F0B4FBAF
:10A1B000C6E701228DF800201A690292DA6803923C
:10A1C0005B690493B3E7FFF73BFEB9E7D3E90512F8
:10A1D000881AB0F5805F94BF121802F58052914240
:10A1E0009A61E1D10022227219688868A8B1684694
:10A1F0000092C0E90122C0E903229A6805921A7907
:10A2000082B1012A07D102228DF80020DA681203F8
:10A2100002925B6904938B68984709490948FEF7E5
:10A2200097FFC1E701228DF800201A690292DA68CF
:10A2300003925B690493EEE7E8390020003A0020BE
:10A24000FC390020582D0020831E012B00D97047B7
:10A2500030B58E4C237A87B0002B31D0022B2BD116
:10A2600003286BD1E3680133082B79D9884B00228E
:10A270001B68E26022720D2519688A68C2B100224B
:10A2800068460092C0E90222026101959A6805922F
:10A290001A79002A00F0B980012A07D102228DF82C
:10A2A0000020DA68120302925B6904938B68984776
:10A2B00078497948FEF74CFF637C1BB107F02CFB13
:10A2C00007B030BD237A002B5BD0714B1B68022294
:10A2D00022721A79002A5FD0012A0BD1D3E9030236
:10A2E0001044FFF761FD002869D0112802D1012335
:10A2F0002372E5E719688A68C2B1002268460092B5
:10A30000C0E902220325026101959A6805921A7933
:10A31000002A70D0012A07D102228DF80020DA68C5
:10A32000120302925B6904938B6898470023594992
:10A33000594823726360FEF70BFFC1E7544B0022BC
:10A340001B68E2601A796AB1012AB5D1D3E9042108
:10A3500001328A421A6111D0637C002BAED1B4E77E
:10A36000E360F9E7D3E90512881AB0F5805F94BF7E
:10A37000121802F5805291429A61EDD100252572A2
:10A380007AE744494448FEF7B5FE414A0346106067
:10A3900000289CD1606093E7D3E90525521BB2F5F4
:10A3A000805FD3E9031028BF4FF480529208012A3E
:10A3B00038BF012229442844FFF7F4FC93E7227CAC
:10A3C000002A7FF47DAF227A002A3FF479AF022A77
:10A3D0000AD1E0601A7912B3012A05D1D3E9042128
:10A3E00001328A421A6126D0637C002B7FF466AF6B
:10A3F000FFF726FD64E701228DF800201A6902921A
:10A40000DA6803925B6904938EE701228DF80020DD
:10A410001A690292DA6803925B69049346E7D3E90A
:10A420000512881AB0F5805F94BF121802F58052A9
:10A4300091429A61D8D10022227219688868A8B125
:10A4400068460092C0E90122C0E903229A68059299
:10A450001A7982B1012A07D102228DF80020DA6828
:10A46000120302925B6904938B68984709490A4872
:10A47000FEF76EFEB8E701228DF800201A690292FD
:10A48000DA6803925B690493EEE700BFE8390020C5
:10A49000003A0020FC390020582D0020FEF74CBF68
:10A4A0002DE9F041858ACE1C043D2E440746B6FBBB
:10A4B000F5F6FEF75DFF78B3F6B24FF48073013E18
:10A4C0000446C5800760838027D08046002509E0C8
:10A4D0006379AE4203F101036371C8F800000760BD
:10A4E00080461AD03846FEF743FF01350028EFD1E9
:10A4F0006679721E14D02346013082421B68FBD15C
:10A500001F684EB1002523682146013538461C4698
:10A51000FEF756FFAE42F6D100242046BDE8F0819A
:10A520002768EFE704300121FEF7BEBEF8B5012130
:10A5300004460430FEF7C4FEC0B200B1F8BD66792F
:10A54000721E12D02346013082421B68FBD11F6865
:10A55000002EF3D0002523682146013538461C46DD
:10A56000FEF72EFFAE42F6D1F8BD2768F2E700BF36
:10A570002DE9F8430446181DE688B0FBF6F30F46B4
:10A58000904606FB130013B1013B2468FCD1351A39
:10A59000454528BF4546B8F1000F15D04FF00009DA
:10A5A0000430A8EB050820442A4607EB09010BF00C
:10A5B000C0F94645A944246835464FF0000028BF3D
:10A5C0004546B8F1000FEBD1BDE8F8832DE9F8431B
:10A5D000C688043304460F46B3FBF6F0904606FBEC
:10A5E000103110B101382468FCD1751A454528BFD7
:10A5F0004546B8F1000F15D04FF000090431214451
:10A60000A8EB05082A4607EB09000BF092F946452E
:10A61000A944246835464FF0000128BF4546B8F1EB
:10A62000000FEBD1BDE8F88333DF704741DF70479F
:10A63000064A074B10B5002414701C60BFF35F8FEF
:10A640000449054800F08CF8204610BD0D3A002062
:10A65000103A0020A8650300043A002000B583B03A
:10A6600002A8002300F8013DFDF7D8F8F1EE103AFA
:10A6700023F09F03E1EE103ABFF35F8F0A4B4022B5
:10A68000C3F884219DF80700FDF7EEF807F054F9B0
:10A6900028B920BF40BF20BF03B05DF804FBFFF71F
:10A6A000C5FF03B05DF804FB00E100E0F8B5264DFE
:10A6B000064601212846FEF7BDFDBFF35F8FD0B9E6
:10A6C000042E2FD0214B1A7892B9214C01222670EA
:10A6D0001A70204E73687BB1374604E0384600F0AC
:10A6E00049F8736843B11B68207898470028F5D172
:10A6F000BFF35F8F2860F8BDFCF7EEFAFCF7B2FA03
:10A700000028FBD12378023B012B0DD907F014F967
:10A71000B8B94FF080430122C3F80025BFF34F8F33
:10A7200020BFFDE70A4CD4E7BFF34F8F0A490B4B1C
:10A73000CA6802F4E0621343CB60BFF34F8F00BFDF
:10A74000FDE7FFF771FFE4E7103A00200D3A002023
:10A750000C3A0020043A002000ED00E00400FA0565
:10A7600001600B6843604A68934204BF0023436062
:10A77000704700BF436843B1026891680B4443606F
:10A780005268934204BF00234360704730B4184DB1
:10A79000A5F59472AB1ADB1003EBD3735B1002EBDD
:10A7A000C30152F83330984228BF0C4605D311E05C
:10A7B00052F8333098420CD221468B1ADB1003EB4F
:10A7C000D3735B108A4202EBC304F1D3094830BC57
:10A7D00070470D46984204D904F10802AA42D9D321
:10A7E000F4E76068034B002808BF1846EFE700BF96
:10A7F000FC660300C0650300BFF34F8F0549064B9D
:10A80000CA6802F4E0621343CB60BFF34F8F00BF0E
:10A81000FDE700BF00ED00E00400FA0538B5B34BDA
:10A820001B78062B24D0B24B1B68062B00F08980C6
:10A83000B04AD2F8883043F47003C2F88830BFF3CE
:10A840004F8FBFF36F8F4FF01023D3F80C22D20736
:10A8500000F1B081D3F80022002AC0F28581D3F83C
:10A860000432002BC0F28081A34BA44A1A6038BD89
:10A87000A34B1B681B07D6D1A24B1B6803F0F00249
:10A88000302A00F09D8003F0E003402B00F0988018
:10A890009C4B1B6803F0F003302B00F01881994BA0
:10A8A0001B6803F0F002302A7AD003F0E003402B5B
:10A8B00076D0944B1B6803F0F003302B00F04481FA
:10A8C000904B1B6803F0F002302A56D003F0E003EF
:10A8D000402B52D08B4B1B6803F0F003302B00F061
:10A8E000E880884B1B6803F0F003302B00F0CA802F
:10A8F000844B1B6803F0F003502B71D0814B1B6815
:10A9000003F0F002302A27D003F0E003402B23D0DD
:10A910007C4B1B6803F0F002302A03D003F0E00305
:10A92000402B80D14FF08043D3F80024D10744BF9F
:10A930006FF00102C3F800246D4B1B68062B7FF4F7
:10A9400077AF714B1B68062B7FF472AF6F4A1368A9
:10A9500043F4806313606BE76D4B6E4A1B6803F032
:10A960004F031360614B1B78062B7FF45CAF644B85
:10A970001B6818077FF457AFCAE74FF080430022E7
:10A98000C3F80C21C3F81021C3F83825574B1B78A6
:10A99000062BE7D15A4B1B681A077FF444AF99E79F
:10A9A0005D4B524A1B6812785C49C3F34233062A56
:10A9B0000B6073D1524B1B6818077FF434AF78E7F4
:10A9C000574B4A4A1B6812785649C3F30423062A98
:10A9D0000B60DBD14A4B1B681D077FF424AF57E7A0
:10A9E0004FF08053504AD3F80414C2F82015D3F81E
:10A9F0000814C2F82415D3F80C14C2F82815D3F89B
:10AA00001014C2F82C15D3F81414C2F83015D3F86A
:10AA10001814C2F83415D3F81C14C2F84015D3F832
:10AA20002014C2F84415D3F82414C2F84815D3F8FA
:10AA30002814C2F84C15D3F82C14C2F85015D3F8CA
:10AA40003014C2F85415D3F83414C2F86015D3F892
:10AA50003814C2F86415D3F83C14C2F86815D3F85A
:10AA600040142248C2F86C15D3F844140378C2F895
:10AA70007015062B7FF4D7AE214B1B681C077FF4A3
:10AA8000D2AE3BE7294A2A4C2A492B4B05201060BD
:10AA9000012500203F22256008601A60134B1B78B7
:10AAA000062B7FF4C0AE164B1B681D077FF4BBAEB0
:10AAB0001EE70E4B214A1B780321062B11607FF401
:10AAC000B2AE0F4B1B681B077FF4ADAE09E7074B17
:10AAD0001B4A1B781B491160062B7FF4A4AE084B60
:10AAE0001B681C077FF49FAED9E600BFE00F00F0A3
:10AAF0003001001000ED00E06C2D00200090D0032C
:10AB0000E40F00F0E80F00F0340100103C170040A3
:10AB100058020010E40E0040440200103C050040C2
:10AB2000240300104035014000C000401056004092
:10AB3000885600401856004014560040A0050040BA
:10AB400074C007400DF0ADBA29492A4BCA681B787A
:10AB500022F08072062BCA607FF465AE264B1B681C
:10AB600019077FF460AEABE6244A0123C2F804352E
:10AB7000D2F80034002BFBD04FF0102315211F4AD0
:10AB8000C3F80012D2F80034002BFBD04FF0102392
:10AB900015211A4AC3F80412D2F80034002BFBD056
:10ABA00000231649C2F80435D1F80034002BFBD03D
:10ABB000FFF722FE114B0122C3F80425D3F800242D
:10ABC000002AFBD04FF010210C4BD1F80C2222F0C0
:10ABD0000102C1F80C22D3F80024002AFBD0002186
:10ABE000064AC3F80415D2F80034002BFBD0DFE787
:10ABF000F0ED00E0E00F00F0E40F00F000E00140B5
:10AC000010B570B101280BD10D4C2369A0703BB178
:10AC1000D3E900230120226198472369002BF7D153
:10AC200010BD074CA36801226270002BF8D0D3E955
:10AC300000230020A2609847A368002BF7D1EFE71C
:10AC4000143A002070B910B5074CA3680122627055
:10AC50003BB1D3E900230020A2609847A368002BF2
:10AC6000F7D110BD704700BF143A002030B501285D
:10AC700083B01CD015D3032811D100F055F802A8D9
:10AC800000231F4C00F8013DFCF7C8FDE368013BC1
:10AC9000E360E56865B39DF80700FCF7E5FD03B0E8
:10ACA00030BD184B0122C3F8802003B030BD02A88C
:10ACB0000023134C00F8013DFCF7B0FD237853B19D
:10ACC000E3689DF8070001330122E360A270FCF7FE
:10ACD000CBFD03B030BD0C486360A3602361E3602B
:10ACE00000F014F806F028FE30B101232370E7E7E6
:10ACF00000F02EF8A570CEE700F016F8F5E700BFDB
:10AD0000143A002000E100E001AC0200054A13798A
:10AD10002BB90121106053711846117170478520BD
:10AD2000704700BF283A0020084B1A68D20706D4A3
:10AD30000122E02183F80013C3F880211A604FF04C
:10AD400080430122C3F81825704700BF00E100E0EE
:10AD5000044B01221A604FF08042D2F81834DB0312
:10AD6000FBD470470C00004010B5154B1A6882B038
:10AD70007AB10021134A19601B68507900934FF093
:10AD800080410123009CC1F8083310B91168537148
:10AD900088470D4B1A6882B100221A601B68019324
:10ADA0004FF080420221074B0198C2F808131B683C
:10ADB000012002B0BDE81040184702B010BD00BF2E
:10ADC00000010040283A00200401004070B5204CEA
:10ADD00094F85D5082B0002D37D14FF0FF332946F3
:10ADE000042204F15900C4E90033C4E90233C4E980
:10ADF0000433C4E90633C4E90833C4E90A33C4E9B7
:10AE00000C33C4E90E33C4E91033C4E91233C4E986
:10AE1000143384F858300AF097FD0E4B0E4A0F4E4B
:10AE20001560E02183F806134021C3F880111960F2
:10AE30001368019301994FF000430122284684F8DA
:10AE40005D20C6F8043302B070BD082002B070BDAA
:10AE5000303A002000E100E07C61004000600040EA
:10AE600070B43F4B1A1892F93440013441D18C78B8
:10AE7000E4B11A68013268D05A68013267D09A6822
:10AE8000013266D0DA6801325DD01A69013262D0CF
:10AE90005A69013261D09A6901322DD0DA690132E2
:10AEA00008BF072229D0042070BC7047FE2382F817
:10AEB00034304A780123012A4FF0A04203FA00F30C
:10AEC0000CBFC2F80835C2F80C3500F5E0724FF03F
:10AED000A043032143F82210C208224900F00700D2
:10AEE0008C5C012303FA00F020438854002070BCDE
:10AEF0007047082070BC70470622940004F180441B
:10AF000004F5C0441D18002643F8226085F834205B
:10AF1000D4F810350A784D7823F4981323F4F853B5
:10AF200012042D05C4F8103505F4801502F44032E2
:10AF300003022A4303F4F853D4F8105513432B4368
:10AF4000C4F81035B5E70322D7E70022D5E7012280
:10AF5000D3E70222D1E70422CFE70522CDE700BFE5
:10AF6000303A0020893A002001234FF0A04203FA32
:10AF700000F0C2F8080570472DE9F04186B00023C3
:10AF8000B64A01931668012E00F07E811E46B44B2E
:10AF90001A68012A00F08781B24B1A68012A00F072
:10AFA0009481B14B1A68012A00F0A181AF4B1A6855
:10AFB000012A00F0AE81AE4B1A68012A00F0BB8175
:10AFC000AC4B1A68012A00F0C881AB4B1A68012A01
:10AFD0000CD0AA4B1B68012B00F0CF8116F0FF0F9D
:10AFE00015D1002E30DB06B0BDE8F081A44AD2F8BE
:10AFF00004231106EDD500221A601A68049260330A
:10B00000049A1B68012B46F0800600F0B6819D4F24
:10B0100000240125A30003F18043354203F5C0431A
:10B020004FEA45050BD0D3F8100557F82420D3F884
:10B030001015C0F30420C1F3014102B1904701345F
:10B04000082CE7D1002ECEDA00224FF0FF33CDE9F5
:10B0500002238C4C012694F954305A1C00F09D8137
:10B06000DBB223F0C00006AAC70802EB070C03F00E
:10B0700007021CF80C5C06FA02F215401BD02518DA
:10B08000990995F9343054F82380B8F1000F00F095
:10B09000BD81032900F0BC81830003F1A0431CF8AB
:10B0A000145CD3F800771540C7F3014740F0738173
:10B0B000032F00F0388294F955305F1C2CD0DBB29E
:10B0C00023F0C00006AAC70802EB070E03F0070230
:10B0D0001EF80C1C06FA02F211421DD004EB000C03
:10B0E00099099CF9343054F82380B8F1000F00F02E
:10B0F0009F81032900F09F81830003F1A0431EF884
:10B1000014CCD3F800771CEA020FC7F3014740F0D4
:10B110004681032F00F0018294F95630581C2CD040
:10B12000DBB223F0C00006AAC70802EB070E03F04B
:10B1300007021EF80C1C06FA02F211421DD004EBA5
:10B14000000C99099CF9343054F82380B8F1000FB1
:10B1500000F06381032900F06381830003F1A043C1
:10B160001EF814CCD3F800771CEA020FC7F301478E
:10B1700040F02081032F00F0CA8194F95730591C08
:10B180002CD0DBB223F0C00006AAC70802EB070EE2
:10B1900003F007021EF80C1C06FA02F211421DD041
:10B1A00004EB000C99099CF9343054F82380B8F171
:10B1B000000F00F04881032900F04881830003F16B
:10B1C000A0431EF814CCD3F800771CEA020FC7F393
:10B1D000014740F0FB80032F00F0938194F9583031
:10B1E0005A1C2CD0DBB223F0C00006AAC70802EB21
:10B1F000070E03F007021EF80C1C06FA02F21142B9
:10B200001DD004EB000C99099CF9343054F82380CC
:10B21000B8F1000F00F0EF80032900F0EF80830009
:10B2200003F1A0431EF814CCD3F800771CEA020FF8
:10B23000C7F3014740F0D580032F00F01881002D9F
:10B240003FF4D1AE4FF0A043019AD3F810359342AA
:10B250003FF4C9AE029A01930392FCE600610040FC
:10B2600004610040086100400C6100401061004032
:10B2700014610040186100401C6100407C61004086
:10B2800000600040303A0020B149D1F8041311F0B9
:10B29000010170D0136013680493049BAD4B1A68CE
:10B2A000012A7FF479AEAA4AD2F8042391077FF5E8
:10B2B00073AE00221A601B680493049BA64B1A68A5
:10B2C000012A46F002067FF46CAEA14AD2F80423AC
:10B2D00052077FF566AE00221A601B680493049B38
:10B2E0009E4B1A68012A46F004067FF45FAE984A26
:10B2F000D2F8042317077FF559AE00221A601B68A5
:10B300000493049B964B1A68012A46F008067FF4C2
:10B3100052AE8F4AD2F80423D5067FF54CAE0022F8
:10B320001A601B680493049B8E4B1A68012A46F02E
:10B3300010067FF445AE864AD2F8042394067FF5C2
:10B340003FAE00221A601B680493049B864B1A6868
:10B35000012A46F020067FF438AE7D4AD2F8042355
:10B3600050067FF532AE00221A601B680493049BDE
:10B3700046F0400629E60E4609E67C4B00221A609C
:10B380001B6805934FF0A043059AD3F8103501933D
:10B3900046F0004622E6022F60D000258BE6022F01
:10B3A0007FF4BAAE032979D0B8F1000F3FF4B4AE00
:10B3B000C047B1E6022F7FF4E0AE032900F08E8093
:10B3C000B8F1000F3FF4D9AEC047D6E6022F7FF4A4
:10B3D00005AF032972D0B8F1000F3FF4FFAEC047AC
:10B3E000FCE6022F7FF42BAF032900F08780B8F131
:10B3F000000F51D123E703297FF421AF0DF1080C91
:10B400001CF8073013430CF8073008E70329C4D1B0
:10B4100002ADEB5D1343EB553EE603297FF4ADAE81
:10B420000DF1080C1CF8073013430CF8073094E6B4
:10B4300003297FF471AE0DF1080C1CF8073013439B
:10B440000CF8073058E603297FF4C8AE0DF1080C5C
:10B450001CF8073013430CF80730AFE6032973D00C
:10B460000025B8F1000F3FF426AEC04723E60329BC
:10B47000BDD14FF40037D3F8002722F44032C3F88F
:10B480000027D3F8002701353A43EDB2C3F800276F
:10B49000B8F1000F3FF4D6AEC047D0E64FF44032CB
:10B4A000D3F8007727F44037C3F80077D3F8007754
:10B4B00001353A43EDB2C3F8002775E74FF4403247
:10B4C000D3F8007727F44037C3F80077D3F8007734
:10B4D00001353A43EDB2C3F800277CE74FF4403220
:10B4E000D3F8007727F44037C3F80077D3F8007714
:10B4F00001353A43EDB2C3F8002761E74FF4403716
:10B50000B9E703297FF467AF4FF40032D8E7032986
:10B510007FF456AF4FF40032E2E703297FF444AFE3
:10B520004FF40032BCE703299BD14FF40032D3F82B
:10B53000005725F44035C3F80057D3F800572A4385
:10B54000C3F8002701258CE74FF44032EFE700BF36
:10B550000060004004610040086100400C61004050
:10B560001061004014610040186100407C6100409F
:10B57000014B1B68184700BF903A0020104B9842BF
:10B5800001D00020704730B583B002A8002300F836
:10B59000013D0D46FCF742F90A4B1C7934B19DF888
:10B5A0000700FCF761F9112003B030BD01229DF8BE
:10B5B00007001D601A71FCF757F92046F4E700BF39
:10B5C00000200040903A0020032811D8012A0BD017
:10B5D000012919D00ED302290AD10E4B00EB4000ED
:10B5E000034400205A70704701290AD00022EFE777
:10B5F00007207047074B00EB4000034400209A707F
:10B60000704700F10E02D2B200EB40030149002066
:10B61000CA547047983A002010B50388102B07D001
:10B62000112B04D1254B18680138186030B110BDBA
:10B63000224C216881B10131216010BD012202211B
:10B64000FFF7C2FF38B3072825D01D4B1B68002B1E
:10B65000EDD0BDE81040184701220846FFF7B4FFBF
:10B6600038B1072805D0164B1B6803B198472168ED
:10B67000E1E7072202210120FFF7A6FF08B1072812
:10B68000F1D1042202210020FFF79EFF0028EED016
:10B690000728E8D1EBE7072202210120FFF794FFFA
:10B6A00008B10728D1D1002108460A22FFF78CFFF4
:10B6B0000028BCD00728C8D110BD00BFA83A002080
:10B6C000A43A002076DF704778DF70477ADF704752
:10B6D0007CDF70478FDF7047014B01221A70704783
:10B6E000D53E0020704700BFFBF75CBCF0B5344C82
:10B6F00085B02170002B3FD0111D651C601D90424C
:10B7000088BFA94252D80B2B50D91178617051785B
:10B71000A1709178E170A3F1030C4FEA9C07D51C4E
:10B7200020460021013155F8046B40F8046F8F4228
:10B73000F8D82CF003018C4501F103051CD0081D3D
:10B74000555D2554984217DA4D1D105C6055AB428B
:10B7500012DD881D555D255483420DDDCD1D105C25
:10B760006055AB4208DD01F10800555D2554834268
:10B7700002DD2144125C4A720133124D0094002410
:10B78000DBB211480193224669462C70CDE9024490
:10B7900006F0D8FB08B106E020BF2B78002BFBD0C9
:10B7A000002005B0F0BDFBF7FDFBF6E70449D51816
:10B7B00012F8010B01F8010FAA42F9D1DCE700BF32
:10B7C000D03D0020D53E0020DC6E0300F0B5DFF850
:10B7D000F8C0394D394F8CF8001085B000201E4656
:10B7E00001331446DBB202464FF0010E2870694661
:10B7F00033480393CDF800C0CDE901E706F0A2FB82
:10B8000000284AD12B781BB920BF2A78002AFBD008
:10B81000002E3FD02B49231D0A1DA24288BF8B4218
:10B820003ED80B2E3CD97B782370BB786370FB78B5
:10B83000A370A6F1030C01394FEA9C05E01C00221D
:10B84000013251F8043F40F8043B9542F8D82CF0FF
:10B8500003039C4503F103011CD01A1D9642B85CFA
:10B86000605417DD591D8E42785CA05412DD9A1D7C
:10B870009642B85C60540DDDD91D8E42785CA054B0
:10B8800008DD03F108029642B85C605402DD1F44F3
:10B890007B7AA354002005B0F0BDFBF783FBB1E732
:10B8A000064B264413F8012F04F8012BB442F9D1BA
:10B8B000002005B0F0BD00BFD53E0020D03C0020E8
:10B8C000DC6E0300D13C0020D03D0020F0B585B0F7
:10B8D000534B002201A9012009F086FC514A13783C
:10B8E0000133DBB2302B1ED013704F4B1B78C3B12A
:10B8F0004E4C4F4D228828684E4EBDF8081081549A
:10B9000033789DF90970511C89B201334754DBB279
:10B91000911C89B2082B218049D0B1F5FF6F33709B
:10B920005FD005B0F0BD444D444C2B78BDF90860A4
:10B93000E6545F1CFFB23612E6559E1CBDF90400AA
:10B94000BDF90610F6B2DF1CFFB2A0551E1D001295
:10B95000E055F6B2581D0633DBB2C0B2A155182B24
:10B960004FEA21214FF0000621542B701670BCD1F4
:10B97000052007F0A1FE2B785F1C0246FFB24FEABC
:10B98000122CE254991C04F807C0DF1CC9B2FFB2A4
:10B990004FEA124C120E04F801C00433E255284855
:10B9A0002B7021461C2209F081F92E709DE7BDF80D
:10B9B00004304354D31C9BB29DF90510C154131D90
:10B9C0009BB2BDF80610C154531D9BB29DF90710E0
:10B9D000C154063291B20023B1F5FF6F218033705C
:10B9E0009FD1184F052007F067FE3B781649174A8C
:10B9F00001EBC32C04AEB3FA83F35B0946F810CD18
:10BA000001EBC3210831CCF8040029603046042141
:10BA100000263B702680FBF741FB05B0F0BD00BF60
:10BA2000583B0020843B0020CF3D00208C3B002071
:10BA3000883B0020853B0020393B00203C3B002018
:10BA40007C3C0020D43E0020B84C0020A1BB02006A
:10BA500010B50A8840F677239A420C4605D0214655
:10BA60000A48BDE8104009F049B9094A8B88108896
:10BA70004A880849000440F00300FAF7E9FF21462C
:10BA80000248BDE8104009F039B900BF7C3C0020F5
:10BA9000B42F0020286D0300104B1B881B040328C3
:10BAA00017D8DFE800F0110C070243F001000C4941
:10BAB000FAF7AABD43F001000A49FAF7A5BD43F021
:10BAC00003000949FAF7A0BD43F003000749FAF75C
:10BAD0009BBD43F001000649FAF796BDB42F002044
